:020000040801F1
:1000000040BA01205D020108B34601086F400108B3
:10001000B1460108F50B0108455001080000000039
:100020000000000000000000000000009D01010829
:10003000990E010800000000F9010108BD480108FF
:1000400077020108770201087702010877020108A8
:100050007702010877020108770201087702010898
:100060007702010877020108770201087702010888
:100070007702010877020108770201087702010878
:1000800077020108F90B01087702010877020108DD
:100090007702010877020108770201087702010858
:1000A0007702010877020108770201087702010848
:1000B000A1490108770201087702010877020108C7
:1000C0007702010877020108770201087702010828
:1000D0007702010877020108395001087702010808
:1000E0007702010877020108770201087702010808
:1000F00077020108770201087702010877020108F8
:1001000077020108770201087702010877020108E7
:10011000770201087702010877020108AD4901085A
:10012000050C010877020108110C0108770201088B
:10013000770201088D0F0108770201087702010894
:1001400077020108770201087702010877020108A7
:100150007702010877020108770201087702010897
:100160007702010877020108770201087702010887
:1001700077020108770201087702010800000000F9
:100180007702010877020108DFF80CD000F016FCB6
:100190000048004709AC010840BA01202C4B1968FF
:1001A0000868B0E8F04F80F30988BFF36F8F4FF015
:1001B000000080F3118870470000000008480068C4
:1001C000006880F308884FF0000080F3148862B65E
:1001D00061B6BFF34F8FBFF36F8F00DF00BF00BF6B
:1001E00008ED00E0DFF80C00016841F470010160E7
:1001F000704700BF88ED00E0EFF30980BFF36F8F19
:10020000134B1A681EF0100F08BF20ED108A20E96A
:10021000F04F106009B44FF0500080F31188BFF325
:100220004F8FBFF36F8F1AF041FC4FF0000080F347
:10023000118809BC19680868B0E8F04F1EF0100F6B
:1002400008BFB0EC108A80F30988BFF36F8F704746
:1002500028000020EFF30580704700000648804723
:1002600006480047FEE7FEE7FEE7FEE7FEE7FEE79B
:10027000FEE7FEE7FEE7FEE7854901088901010880
:100280002DE9F05F0546002092469B4688460646CB
:10029000814640241BE0284641464746224600F05E
:1002A00037FA53465A46C01A914110D311461846A0
:1002B000224600F01EFA2D1A67EB01084F4622462F
:1002C0000120002100F015FA17EB00094E41201E15
:1002D000A4F10104DFDC484631462A464346BDE826
:1002E000F09F00000649074A0868504343F239026C
:1002F00010440860400870470149086070470000DA
:1003000048C401206D4EC64110B5431A934209D22C
:100310008318881803E010F8011D03F8011D521E10
:10032000F9D210BD40EA01039B0703D009E008C9D8
:10033000121F08C0042AFAD203E011F8013B00F8AA
:10034000013B521EF9D210BDD2B201E000F8012BE0
:10035000491EFBD270470022F6E710B513460A4645
:1003600004461946FFF7F0FF204610BD421E12F862
:10037000013F002BFBD111F8013B02F8013B002BA0
:10038000F9D1704710B5044604E00B7800F8013B42
:1003900003B1491C521EF8D2204610BD421C10F871
:1003A000011B0029FBD1801A704710B5002200E024
:1003B000521C835C8C5CA34201D1002BF8D1D8B2D3
:1003C000E1B2401A10BD30B504460020034600E0FB
:1003D0005B1C934203D2E05CCD5C401BF8D030BD87
:1003E000034611F8012B00F8012B002AF9D1184619
:1003F000704730B505460020034600E05B1C934281
:1004000005D2EC5CC85C201A01D1002CF6D130BDBD
:100410002DE9FE4F804681EA0300C00F0C46009094
:1004200021F0004123F00045B8EB0200A94105D2BC
:100430004046214690461C460B46024623F00040AB
:10044000104347D0270DC7F30A00C3F30A510290A7
:10045000401A019040286BDAC3F3130040F4801B6C
:100460000098924620B10023D2EB030A63EB0B0BFA
:1004700001985946C0F14002504600F03AF906464C
:100480000D4650465946019A00F052F910EB08000B
:100490006141002487EA115284EAE7731A4340D08D
:1004A000009A62B3019A012A4FEA075215DC001B39
:1004B00061EB02014FF0004202EA0752CDE900422F
:1004C000001C41F5801132462B4600F089F903B03B
:1004D000BDE8F08F40462146F9E7001B61EB0201C1
:1004E000001C41F5801300185B412018A2F500178D
:1004F00047EB030140EAD570B6196D4111E06D0874
:100500004FEA360645EAC0754FEA0752001B61EB19
:100510000201001C41F5801149084FEA3000001922
:10052000514132462B4603B0BDE8F04F00F049B9C7
:100530000098012240000023D0EB020263EBE0733D
:10054000009821464FEAE074B8EB000061EB04012B
:10055000E9E783F000435BE781F0004158E72DE9CC
:10056000FE4F81EA030404F0004421F000410094AE
:100570004FF0000B23F0004350EA01045ED052EA32
:1005800003045BD0C3F30A54C1F30A552C44A4F20C
:10059000F3340194A0FB0254C1F3130141F4801120
:1005A000C3F3130343F4801301FB024400FB034E27
:1005B000840A970A44EA815447EA8357A4FB0768F0
:1005C00002958D0A05FB07854FEA932C04FB0C541A
:1005D0002705029D4FEA065847EA1637B5EB08058E
:1005E0006EEB070C870E920E47EA811742EA8312E0
:1005F000A7FB0201B6EB0B0164EB00042B0D43EAF1
:100600000C335E1844EB1C50DA465146E7FB0201FE
:10061000C5F313044FEA0B3343EA14534FEA043291
:10062000019C43EA0603A4F10C040294009CCDE96A
:1006300000B400F0D5F803B0BDE8F08F002001460B
:10064000F9E70EB540F2334102910021CDE90011E6
:100650000A460B4600F0C4F803B000BDC1F30A52CD
:1006600010B5C1F3130140F2FF3341F480119A42F7
:1006700001DA002010BD40F233439A42A2F2334225
:1006800003DC524200F044F810BD904010BD01F070
:10069000004330B421F0004150EA010206D00A0DB7
:1006A000A2F56072C1F31301002A02DC30BC002005
:1006B0007047440F44EAC104C100E01830BC00EBAD
:1006C000C25000F047B830B50B460146002020224A
:1006D000012409E021FA02F59D4205D303FA02F54F
:1006E000491B04FA02F52844151EA2F10102F1DCAF
:1006F00030BD202A04DB203A00FA02F100207047C6
:100700009140C2F1200320FA03F31943904070474F
:10071000202A04DB203A21FA02F00021704721FA56
:1007200002F3D040C2F120029140084319467047BD
:10073000202A06DBCB17203A41FA02F043EAE073A5
:1007400006E041FA02F3D040C2F120029140084392
:10075000194670470029A8BF7047401C490008BFD0
:1007600020F00100704710B4B0FA80FC00FA0CF0E1
:1007700050EA010404BF10BC704749B1CCF1200419
:1007800021FA04F411FA0CF118BF012121430843A6
:10079000A3EB0C01CB1D4FEA00614FEA102042BFD2
:1007A000002010BC704700EBC35010440029A4BFC8
:1007B00010BC7047401C490008BF20F0010010BC6D
:1007C000704710B5141E73F1000408DA401C41F1A3
:1007D000000192185B411A4301D120F0010010BDC5
:1007E0002DE9F04D92469B4611B1B1FA81F202E03B
:1007F000B0FA80F220329046FFF77BFF04460F46A6
:1008000040EA0A0041EA0B0153465A46084313D016
:10081000114653EA010019D0C8F140025046FFF7D3
:1008200077FF05460E46504659464246FFF761FFA0
:10083000084305D0012004E020463946BDE8F08D8C
:100840000020054346EAE0762C4337430A986305C7
:10085000E40AA0EB08000022FD0A44EA47540A30EB
:1008600002D500200146E9E7010510196941DDE9DB
:10087000084500196941BDE8F04DA2E72DE9F04DAA
:1008800081EA030404F0004B21F0004514464FF0C8
:10089000000A23F0004150EA050220D054EA010288
:1008A0001DD0C5F30A570246C5F31303C1F3130065
:1008B000C1F30A5640F4801543F48013A7EB0608F1
:1008C000101BD64608F2FD3873EB050002D308F181
:1008D000010801E092185B41B8F1000F03DA002033
:1008E0000146BDE8F08D00204FF480110646844695
:1008F0000EE0171B73EB050705D3121B63EB050313
:1009000006434CEA010C49084FEA300092185B415B
:1009100050EA0107EDD152EA030012D082EA040046
:1009200083EA0501084305D0101BAB4106D2012222
:10093000002306E000224FF0004302E06FF00102C6
:1009400053101AEB06004CEB085110EB0A0041EB78
:100950000B01BDE8F04DFFF734BFC1F30A52C1F3FC
:10096000130140F2FF3341F480119A4202DA002071
:100970000146704740F233439A42A2F2334202DC0E
:100980005242FFF7C5BEFFF7B4BE000030B5041EEB
:1009900071F1000404DB4FF00044404264EB0101BC
:1009A000141E73F1000405DB1C464FF00043524255
:1009B00063EB0403994208BF904230BD064C074DDB
:1009C00006E0E06840F0010394E80700984710341F
:1009D000AC42F6D3FFF7DCFB64CF0208A4CF0208D9
:1009E00070B58C1810F8015B15F0070301D110F8F1
:1009F000013B2A1106D110F8012B03E010F8016B1E
:100A000001F8016B5B1EF9D12B0705D40023521EA0
:100A10000DD401F8013BFAE710F8013BCB1A921C08
:100A200003E013F8015B01F8015B521EF9D5A14206
:100A3000D8D3002070BD10B50146886B026C12F04F
:100A4000500F05D0026CD20626D500F0C7FD10BDB0
:100A5000016C41F40071016401688A6812F0405F22
:100A600017D1027EAAB9CA6A12F4700F02D08A683E
:100A700052050ED44A6822F020024A60016C21F42B
:100A800080710164016CC90403D4016C41F001015F
:100A9000016400F0A1FD10BD806BC26CBDE8104088
:100AA0000846104710B5806B40210164416C41F04D
:100AB0000401416400F092FD10BD10B5806B00F0A0
:100AC0008CFD10BD4A494A6822F440324A604A68A7
:100AD00043681A434A6001684A6822F480724A6097
:100AE00001684A68036942EA03224A6001684A6869
:100AF00022F040724A6001684A6883681A434A607B
:100B000001688A6822F400628A6001688A68C368A2
:100B10001A438A60816A6FF07062D14214D0016812
:100B20008A6822F070628A6001688A68836A1A4360
:100B30008A6001688A6822F040528A6001688A6887
:100B4000C36A1A438A6009E001688A6822F0706209
:100B50008A6001688A6822F040528A6001688A6867
:100B600022F002028A6001688A68037E42EA430238
:100B70008A6090F8201089B101684A6842F40062E6
:100B80004A6001684A6822F460424A6001684B6822
:100B9000426A521E43EA42324A6004E001684A68EF
:100BA00022F400624A600168CA6A22F47002CA62D2
:100BB0000168CB6A828B521E43EA0252CA62016804
:100BC0008A6822F400728A6001688A6890F830307E
:100BD00042EA43228A6001688A6822F480628A605D
:100BE00001688A68406942EA802088607047000096
:100BF00000230140FEE70000014800F061BF000053
:100C0000B8CD0120014800F05BBF00009005002036
:100C1000014800F055BF0000300500200168CAB24D
:100C2000103A1823B2FBF3F2064B9B5CC3656FF3DB
:100C30000901032A02D9091D816500E08165806DE3
:100C400070470000C4BB020810B5014600208A6A44
:100C50008B694FF0C074002B0ED0B3F5005F1AD033
:100C600062B3012A2AD0022A28D0032A03D1C96AF2
:100C7000C90100D5012010BD1AB1012A06D0022AEF
:100C8000F9D1C96AC901F6D5012010BDC96AA142CE
:100C9000FBD1012010BD52B1012A0AD0022A06D090
:100CA000032AF7D1C96AA142F4D1012010BD012065
:100CB00010BDC96AC901FBD5012010BD012010BDBE
:100CC00030B50468256825F48025256004686360D4
:100CD0008368402B04D0036899600068C26030BD0F
:100CE00003689A600068C16030BD38B504460020D2
:100CF000009063696A460121206898476FF00405F7
:100D0000002801DA284638BD63696A460121206857
:100D10009847002801DA284638BD0098400701D4DA
:100D2000012038BD63696A46002120689847002881
:100D300001DA284638BD0098C1040FD44FF404519D
:100D4000814303D0810403D5032038BD022038BD80
:100D5000C00501D5042038BD052038BD63696A4649
:100D6000102120689847002801DA284638BD0098ED
:100D7000C10501D4062038BDC0F34101022906D0C7
:100D800010F0060F05D0032905D0052038BD02203C
:100D900038BD032038BD042038BD2DE9F843044692
:100DA0000020009000260025606800284DD1A06832
:100DB00000B18047202020606FF0040763696A4615
:100DC000192130469847002801DA3D4607E000988F
:100DD00000F01F00B04202D12660002502E0761C20
:100DE0001F2EEBD920681F2801D96FF0020505BB23
:100DF00023694FF4004200219847002823DB6369F0
:100E00006A4600212068984700281ADBA0698047BD
:100E100006464FF4FA7810E0A0698047801B4045F1
:100E200008D863696A46002120689847002804DAD8
:100E30003D460AE06FF0010507E000980004EBD49E
:100E400003E03D4601E06FF003055DB9A06980470E
:100E500006464FF4FA67A0698047801BB842FAD96A
:100E6000012060602846BDE8F883002811D0CA68D8
:100E70007AB18A686AB10A695AB10A6882604A68B6
:100E8000C260CA6842618A680261096981610020A2
:100E900070474FF0FF3070477047F0B500220023D5
:100EA0004FF0004544F2F856016902EB820401EB71
:100EB000C4010B604B608B60CB600B624B620D60BA
:100EC0004E604F6827F000474F6000EB8207B9641F
:100ED000032A07D24FF0280C07690CEBC4043C44EA
:100EE000CC6001E00469CC60521C042ADCD3C365E9
:100EF00003668366C36683650169006800F58050F8
:100F0000C160F0BD70B500220024C16802EB82030D
:100F100001EBC3010C604C608C60CC6000EB82057F
:100F2000A9610D6845F480150D60032A06D22826B4
:100F3000C56806EBC3032B44CB6001E0C368CB60FC
:100F40000B6843F440030B60521C042ADDD3846217
:100F5000C168006800F58050016170BD38B5044675
:100F6000206800F58050816941F48011816120681A
:100F700000F5805080690090012000F02BFF206870
:100F8000009900F58050816138BD0000014800F0F3
:100F9000B3BF000028F301201079537940EA0323FE
:100FA0000748084403641178D37841EA03619378D1
:100FB00052781B0443EA0222114341647047000047
:100FC0000080024070B5A4B0064601258DF83C5063
:100FD0008DF83D5000240D948DF84B408DF84A500B
:100FE0008DF848408DF830508DF84C408DF83B40DE
:100FF00014948DF854401D948DF878401F948DF80A
:1010000082408DF88040A8031090C01011908DF898
:1010100081400BA9304600F069F98DF80C508DF82D
:101020000D508DF81D508DF80E5005948DF81C4014
:101030008DF81E4008948DF824508DF80450280433
:10104000029080010690401204908DF825500A9479
:1010500000946946304600F0E9F824B070BD0020E5
:10106000704701F03DBC000010B5024801F0A6F940
:10107000002010BD28F3012010B513460A46014692
:10108000044801F0E8F810B14FF0FF3010BD002027
:1010900010BD000028F3012010B513460A46014692
:1010A000044801F0F2FA10B14FF0FF3010BD0020FB
:1010B00010BD000028F301202DE9F0431830046929
:1010C000254650F824308E684FF0000C1F68002F22
:1010D00003DB00EB84077F6917B10220BDE8F083D2
:1010E0000127D6F80080C3F80880D3F80480D6F82A
:1010F00004906FF30C0848EA0908C3F8048091F8DB
:1011000000805FEAC87809D0D3F80080D1F8149045
:1011100028F4400848EA0908C3F8008091F80080E4
:101120005FEA886809D5D3F80080D1F8109028F0DC
:10113000406848EA0908C3F800800978490703D5E0
:10114000196841F080011960196841F080511960F7
:10115000BFF35F8F196841F00041196047E01968DB
:1011600021F00051196022B1196841F080411960E5
:1011700003E0196821F080411960641C042C00D33D
:10118000241F50F82430196821F080511960196823
:10119000002903DB00EB84014969A1B150F8252047
:1011A00000210CE0BFF35F8F136823F0004313604E
:1011B0006D1C042D00D32D1F50F82520491CB94269
:1011C000F0D302208AE77F1CB668316899605968BD
:1011D000D6F804806FF30C0141EA080159600CF164
:1011E000010CBFF35F8F196841F000411960B168CD
:1011F0000029B4D122B1196841F08041196003E09F
:10120000196821F080411960196841F00051196096
:1012100000EB8402416A5161046172B6816A0CF18B
:10122000010C6144816262B6002057E770B5054643
:101230000C46286800F5805082692B490A40217BC2
:1012400000294CD00021637B890641EA4363617F1A
:10125000E9B3002143EA0151A37B41EA43516369A9
:101260001943237F41EAC311A37F41EA8311236A13
:10127000194394F8243041EA8301114381612868BD
:1012800000F580508669012000F0A4FD286800F573
:1012900080508661A169A06822790843216941EAEA
:1012A0004261084394F8251040EAC110A16A40EA5F
:1012B00081002168084340F40001286800F580504F
:1012C0000160286800F580500468012000E008E013
:1012D00000F080FD286800F58050046070BD012199
:1012E000B1E70121B6E70000233FDEF870B50546FF
:1012F0000C46286802683D490A40217CA368002901
:1013000063D0002143EAC153617C00295FD00021F2
:10131000E67F890541EA06410B4361690B43A17FE2
:10132000F1B3002143EA4131237F41EA0331A3694C
:101330001943237941EA832394F8201089B30021CB
:1013400043EA4121E37B41EAC311636A194394F8FC
:10135000283041EA03111143016028680668012022
:1013600000F038FD28680660286882694FF64171F0
:101370000A40A36C216D41EA034394F84C1061B319
:101380000021CE0194F85510012928D0002146EA09
:10139000C1010B4394F85610012922D0002101E02D
:1013A00017E018E043EA810394F8541001291AD099
:1013B000002143EA410111438161286884690120C9
:1013C00000F008FD2868846170BD01219AE70121C1
:1013D0009EE70121A6E70121B2E70121D1E7012122
:1013E000D5E70121DBE70121E3E700000F8120FFC2
:1013F0002DE9F84306464FF00009CDF800904FF074
:101400000108B56E06EB8500846CF76E1EE0206A5D
:1014100030B9684600F082FF009838B32062A060BF
:10142000B8F1000F12D0B06D18B344F2F8506060FC
:10143000BFF35F8F206840F0004020606D1C042DDA
:1014400000D32D1F06EB8500846C7F1E17B1B8F109
:10145000000FDCD1F06EB84206D0306800F5805045
:10146000C0F80890B566F766BDE8F8834FF000084D
:10147000D6E701486060DBE7F84500807047000070
:1014800078B50024009490F83C20012A19D001225C
:1014900080F83C200A680725092A14D90368DE6809
:1014A0000A3A02EB42029540AE43DE600A788B684E
:1014B0000A3A02EB420293400268D5682B43D3609C
:1014C00011E0022078BD03681E6902EB42029540DC
:1014D000AE431E610A788B6802EB420293400268B9
:1014E00015692B4313614A681F25072A13D2036825
:1014F0005E6B521E02EB82029540AE435E630A8829
:1015000093B20A79521E02EB820293400268556B35
:101510002B43536328E00D2A13D203681E6BD21F9E
:1015200002EB82029540AE431E630A8893B20A79A9
:10153000D21F02EB820293400268156B2B431363A8
:1015400012E00368DE6A0D3A02EB82029540AE4378
:10155000DE620A8893B20A790D3A02EB8202934066
:101560000268D56A2B43D362174A184B05689D421F
:1015700006D10D68122D03D1556845F480055560DC
:1015800005689D421BD10B68102B01D0112B16D181
:10159000536843F400035360096810290FD10C49C4
:1015A0000C4A0968B1FBF2F101EB8101490000919D
:1015B00002E00099491E009100990029F9D180F8B4
:1015C0003C40002078BD0000002301400020014085
:1015D00000C0012040420F0070477047704770B54F
:1015E00004460026002C03D0206C002510B107E033
:1015F000012070BD204600F01DF8656484F83C5061
:10160000206CC00610D4206C20F4885040F00200FA
:1016100020642046FFF756FA6564206C20F0020033
:1016200040F00100206400E0012684F83C50304680
:1016300070BD00002DE9F04786B00546142101A8D1
:10164000FEF789FE3E49DFF8F4C014392868002609
:101650003B4A03243B4B0F154FF400684FF40059ED
:101660004FF4807A604532D1106840F40070106009
:10167000106800F400700090086840F001000860F5
:10168000086800F001000090402001900294039649
:1016900001A9184601F026F82C4C2B482060F803CD
:1016A0006060A660E6602761C4F81480C4F81890F2
:1016B000C4F81CA026626662204600F0E9FA08B170
:1016C000FFF7DCFEAC63A56306B0BDE8F087DFF88A
:1016D00080C06045F8D1106840F4806010601068E8
:1016E00000F480600090086840F00100086008681D
:1016F00000F001000090082001900294039601A9D7
:10170000184600F0EFFF1048104C3038603420606D
:1017100080056060A660E6602761C4F81480C4F8A4
:101720001890C4F81CA026626662204600F0B0FA49
:1017300008B1FFF7A3FEAC63A563C5E70021014034
:10174000443802400000024040640240300500205E
:1017500000220140F8B504460023009394F83C00B1
:10176000012807D0012084F83C0020688568ED0737
:1017700002D014E00220F8BD856845F001058560BF
:101780004648474D0068B0FBF5F000EB4000009084
:1017900002E00098401E009000980028F9D12068CF
:1017A0008568ED0503D5856825F48075856020681A
:1017B0008568ED0768D0256C40F20166B54345F4B5
:1017C000807525644068400505D5206C20F40050E4
:1017D00040F480502064206CC00404D5606C20F07C
:1017E0000600606400E0636484F83C302D4EA36B17
:1017F0002D48D863A36B2D481864A36B2C48D8647C
:1018000023686FF0220018602068436843F080630B
:1018100043602068836843F48073836020681346C4
:101820004C300A46A56B0146284600F09BFA7068CA
:101830002049C00607D0206888422DD1816811F068
:10184000405F1CD028E0206888420FD01A4A90429E
:1018500003D1D1F80423D20608D0184A90421BD1F4
:10186000D1F8041301F01F01102915D2816811F07D
:10187000405F11D1816841F0804181600CE0816856
:1018800041F08041816007E0206C40F0100020644E
:10189000606C40F0010060640020F8BD00C00120D1
:1018A00040420F0000230140370A0108BB0A01082B
:1018B000A50A01080020014000210140002201404A
:1018C00070B54379012B1CD00126467102230371A8
:1018D00003681D6802F0100240F6FE749440A543B0
:1018E000D1E900410C4394402C431C6001680B6813
:1018F000C0249440A3430B60067100214171002075
:1019000070BD022070BD70B50446002C03D0207954
:10191000002510B105E0012070BD6571204600F082
:1019200007F802202071256101202071002070BD80
:1019300010B586B00446142101A8FEF70CFD11492C
:10194000206888421CD100210F48026842F00052F2
:101950000260006800F0005000900B4810380268E8
:1019600042F001020260006800F0010000903020A7
:10197000019003200290039101A9044800F0B2FEF7
:1019800006B010BD00740040403802400000024024
:1019900018B50468009400680029104405D014307C
:1019A000009000980360002018BD08300090F8E710
:1019B00070B54279012A1DD00126344646710222B3
:1019C000027103681D6801F01002944025431D60F8
:1019D00091B101680B6803F470143C2393409C425E
:1019E00003D14A6842F002024A6006710021417147
:1019F000002070BD022070BD01680A68C2F3830236
:101A00000F2AF2D14A6842F001024A60EDE72DE95F
:101A1000F0410446A76D00F063FF054694F83500D9
:101A20000026022806D08020606584F834600120FA
:101A3000BDE8F0812068016821F01601016020688E
:101A4000416921F080014161206C08B9A06C20B18E
:101A50002068016821F0080101602068016821F018
:101A6000010101600BE000F03BFF401B052806D997
:101A7000202034342062032060702670D8E720686C
:101A80000068C007EFD134343F2094F82810884014
:101A9000B8600120607026700020C9E790F835100A
:101AA000022903D08021416501207047052180F87B
:101AB00035100068016821F00101016000207047C5
:101AC0002DE9F84304464FF00009CDF800906F4827
:101AD0004FF416510068B0FBF1F7A56D2E6894F82D
:101AE0005C00082202FA00F1314210D0206801683F
:101AF00049070CD5016821F00401016094F85C00ED
:101B000002FA00F1A960606D40F00100606594F890
:101B10005C104FF0010808FA01F0304208D021684B
:101B20004969090604D5A860606D40F0020060654F
:101B300094F85C1004208840304208D0216809687D
:101B4000890704D5A860606D40F00400606594F8D2
:101B50005C1010208840304220D0216809680907B5
:101B60001CD5A8602068016849030CD500680003F3
:101B700004D4216C91B1204688470FE0A16C69B173
:101B8000204688470AE00168C90503D4016821F0AE
:101B900008010160216C09B12046884794F85C1067
:101BA0002020884030424CD021680968C90648D5B9
:101BB000A86094F8350005280BD020680168490317
:101BC00030D50068000328D4616C51B320468847A3
:101BD00037E02068016821F0160101602068416942
:101BE00021F080014161206C08B9A06C20B120680F
:101BF000016821F00801016094F85C103F208840E2
:101C0000A86084F8358084F83490216D00293BD099
:101C100001B02046BDE8F0430847E16B09B120461A
:101C200088470EE00168C90507D4016821F010015A
:101C3000016084F8358084F83490E16B09B1204666
:101C40008847606D00281FD0606DC00714D0052044
:101C500084F835002068016821F0010101600098D6
:101C6000401C0090B84203D820680068C007F6D135
:101C700084F8358084F83490E16C002904D001B0F8
:101C80002046BDE8F0430847BDE8F88300C00120C6
:101C90002DE9F041044600F023FE05465CB1022028
:101CA00084F83500002684F834602068016821F04B
:101CB000010101600DE00120BDE8F08100F010FE9F
:101CC000401B052805D920206065032084F83500D5
:101CD000F2E720680068C007F0D121680A68204850
:101CE0000240D4E901031843D4E903352B431843D8
:101CF00063691843A3691843E3691843236A1843C7
:101D00001043626A042A03D1D4E90B231A43104317
:101D100008602068406920F00700656A294605438D
:101D2000012704290DD1A06A0543E06A48B1204685
:101D3000FEF78AFF28B14020606584F835700120E5
:101D4000BAE7206845612046FEF768FF94F85C20FA
:101D50003F2191408160666584F835700020ABE7D3
:101D60003F8010F02DE9F04104460025A66D94F85F
:101D7000340001280DD0012084F8340094F8357027
:101D80000020012F07D084F8340002252846BDE842
:101D9000F0810220FBE7022784F835706065204659
:101DA000FEF78EFF94F85C103F208840B0602068FA
:101DB000016841F016010160206C20B120680168C3
:101DC00041F0080101602068016841F001010160F3
:101DD000DCE7000070B5044600F082FD0546601C9B
:101DE00002D004480078044400F07AFD401BA04271
:101DF000FAD370BD1C00002010B500F00BF80006EF
:101E000005D503484068BDE810400CF08FBC10BDFC
:101E100000040020D0F88C00704700296AD00268C6
:101E20001268C2F3001281F828200268126802F0DA
:101E300060024A620268126842F34022521C81F832
:101E4000202002681268C2F30042CA770268126852
:101E500042F34032521C8A7702681268C2F30032A1
:101E60000A770268126802F400628A6102681268E6
:101E700002F480424A610268126842F38052521CA6
:101E80004A740268126842F3C052521C0A74026813
:101E90001268C2F3C012CA730268126802F46022A8
:101EA0008A6002681268C2F380220A71026892692D
:101EB000C2F3400281F854200268926942F3C012D2
:101EC000521C81F84C200268926902F030020A65C7
:101ED00002689269120C8A6402689269C2F38002F5
:101EE00081F8562000688069C0F3C00081F8550071
:101EF000002070470120704710B50446206800F5A7
:101F000080504169490607D5C169490604D52B4966
:101F10004161204600F026FA206800F580504169B2
:101F2000C90708D0C169C90705D04FF00111416147
:101F3000204600F0A1FB206800F5805041690904AB
:101F400022D5C16909041FD5D4F8881041F00801D1
:101F5000C4F88810416989040CD54169184A1140B8
:101F6000C4F88C10C16921F4C031C161E020C4F80B
:101F7000840006E0426948F280610A40C4F88C207F
:101F800041612046FFF738FF2068816B09070AD5B9
:101F9000C06A00F06000C4F89400204600F0E4F845
:101FA0000020C4F8940007480168090305D54FF4E0
:101FB00000210160204600F067FB10BD40000100D9
:101FC00000207E00143C0140F8B50446002C03D0EC
:101FD000D4F8840010B107E00120F8BD2320C4F834
:101FE0008400204600F04CF800272348016841F4A3
:101FF00080410160006800F4804000901F48016843
:1020000021F4000101600168A268114301600068C9
:10201000206800F58050016841F00101016000F086
:102020005FFC05464FF4FA760BE000F059FC401BCC
:10203000B04206D9042084346060E0202060012092
:10204000F8BD206800F580500068C007EDD120463B
:10205000FEF7B8FF2046FEF755FF2046FEF71DFFAE
:10206000002120466268FEF797FF843467601020E5
:1020700020600020F8BD00004438024004380140D0
:10208000F0B587B00446142102A8FEF764F931497F
:10209000206888425BD100242F48016841F000711C
:1020A0000160016801F000710191016841F08061F7
:1020B0000160016801F080610191016841F00061F7
:1020C0000160016801F000610191016841F00401C3
:1020D0000160016801F004010191016841F0010112
:1020E0000160016801F001010191016841F0020104
:1020F0000160006800F00200019032200290022589
:1021000003950494032605960B27069702A9134806
:1021100000F0E8FA8620029003950494059606974D
:1021200002A90F4800F0DEFA4FF4605002900395C8
:1021300004940596069702A90A4800F0D3FA0022F3
:1021400005213D2000F09EFC3D2000F08DFC07B0F5
:10215000F0BD00000080024030380240000802401C
:10216000000002400004024070472DE9F35F04467E
:102170000027B9460198002806D0D4F88400232807
:1021800009D00120BDE8FC9F54F8880F40F0010001
:1021900020600120F6E7E66D04EB8600856CE06EBA
:1021A000C0F1040B4FF0000A39E02868C00503D5E0
:1021B000A869A067E86960672868800501D4E06FB6
:1021C00028B32868800503D5C4F860A0C4F864A0CB
:1021D000D4F814802868C00508D52868C0F30D48D5
:1021E000A8F10408286820674FF00109AA682A624C
:1021F00004F180011FFA88F3081F00F0B9F8206E7F
:10220000401C2066606E40446066C5F820A0761CC5
:10221000042E00D3361F04EB8600856C7F1C2868D3
:10222000002804DB5F4502D2B9F1000FBDD0E06E9B
:102230003844E06610B12046FFF7DAF8E665B9F1F8
:10224000010F01D001209DE70198E16F0160C4F802
:102250007CA0002096E72DE9F041054698462868C5
:10226000036903F01C034FF6FF7404EAC12119430C
:102270004FF4F86303EA82120A4322F0020141F0AC
:102280000104046100F02CFB06464FF4803709E09E
:1022900000F026FB801BB84202D30120BDE8F0818C
:1022A00028680469E007F3D12868406980B2C8F85B
:1022B00000000020F2E72DE9F047814609F11805FA
:1022C000AE6AEC6A4FF0010821E00121761E05EBB1
:1022D0008400406918B9641C04F003040021B1B102
:1022E000D9F80C0004EB840150F8310000280CDB15
:1022F00005EB8407786900F0C5F900207861641C5B
:1023000004F00304AE62EC6201E04FF0000816B185
:10231000B8F1000FD9D10020BDE8F0871CB5044604
:102320000D4809F07BF903467BB103F120002060E2
:102330000A4818614FF4C0612068CDE9000100210E
:10234000412208460CF048FD1CBD054901200870DB
:10235000002020601CBD000004BD020875F40108C7
:1023600000040020014840680CF0E0B9000400209F
:1023700010B5203A00241460148153810468002CA5
:1023800004D00C6822600A60006805E00260FAE789
:1023900001891944018100680028F9D110BD10B5E8
:1023A000002905D0D0F88420102A03D0012010BDC8
:1023B000012010BDFEF79AFF002010BD70B5054644
:1023C0002868006920F01C0400F052FC1049114AF2
:1023D0000144914202D244F0080416E00E490F4A2B
:1023E0000144914202D244F00C040EE00C490D4A23
:1023F0000144914209D30C4908440C49884202D255
:1024000044F0040401E044F010042868046170BD45
:1024100000D3CEFEC0E1E40040F1E9FD40787D014B
:1024200000796CFC005A6202001F0AFA80F0FA027E
:1024300070B50446D4F88400102801D0012070BD86
:102440002326C4F884600420E0662046FEF7D0FF0F
:102450002068016841F008010160206805680120DA
:10246000FFF7B8FC206805602068016841F00401AE
:102470000160206805680120FFF7ACFC206805605A
:102480002046FEF76BFD206800F58050816941F41D
:1024900000518161206800F58050816941F002019E
:1024A0008161C4F88460002070BD000070B50446EE
:1024B000D4F88400102801D0012070BD2325C4F871
:1024C00084500120A0652068C16B41F40271C16392
:1024D0002068D0F80C11224A1143C0F80C11206872
:1024E000D0F8101141F40311C0F810110420E06677
:1024F0002046FEF77DFF2068016841F00801016079
:10250000206806680120FFF765FC206806602068E7
:10251000016841F004010160206806680120FFF7AE
:1025200059FC206806602046FEF718FD206800F57B
:102530008050816941F400518161206800F580502C
:10254000816941F002018161206800F58050C16914
:10255000044A1143C161C4F88450002070BD0000DA
:1025600060000200C1A0010070B50446D4F88400E8
:10257000232801D0012070BD2320C4F884002068E6
:1025800000F58050C1691F4A1140C161206800F503
:102590008050816921F400518161206800F58050EC
:1025A000816921F0020181612068016821F0040144
:1025B0000160206805680120FFF70CFC20680560B9
:1025C0002046FEF7CBFC2068016821F0080101607D
:1025D000206805680120FFF7FDFB206805600020EA
:1025E00004EB8001896C4A6842F000424A60401C5A
:1025F0000428F5D30020A0651020C4F88400002032
:1026000070BD00003E5FFEFF10B50446002905D0F6
:10261000D4F88400232808D0012010BD54F8880F76
:1026200040F001002060012010BD486BE0630122F2
:102630002046FEF741FD30B154F8880F40F002000B
:102640002060012010BDBFF34F8FA06A401CA06224
:10265000042801D3001FA062206800F58050416962
:10266000490706D5042141612068002100F580500A
:102670004160002010BD0000014880680CF056B891
:10268000000400200CF040BE70472DE9F0410546E3
:102690002868046904F01C044FF6FF7606EAC1219D
:1026A00021434FF4F86404EA82120A4342F0020123
:1026B00041F0010499B241612868046100F010F909
:1026C00006464FF4803709E000F00AF9801BB84253
:1026D00002D30120BDE8F08128680469E007F3D146
:1026E000F8E700002DE9F84F0022DFF89C914FF049
:1026F000010803274FF00F0C09F1040AA9F1040B9C
:1027000008FA02F50B682B40AB426ED10C7904F04D
:102710000304012C01D0022C15D18668540007FA5D
:1027200004FE26EA0E06D1F80CE00EFA04FE4EEA8C
:10273000060EC0F808E04468AC430D79C5F30015F7
:102740009540254345600C79E443A40708D0C5684B
:10275000540007FA04F6B5438E68A6402E43C660BF
:102760000C7904F00304022C11D1D40800EB840688
:10277000356A5407E40E0CFA04FE25EA0E05D1F87A
:1027800010E00EFA04FE4EEA050EC6F820E00568D9
:10279000540007FA04F6B5430E7906F00306A64086
:1027A0002E4306604C6814F4403F67D0374C2568D0
:1027B00045F480452560246804F480440094344C3A
:1027C00022F003052E19D6F8085894074FEA147E14
:1027D0000CFA0EF4A5432F4CA04201D1002424E0B2
:1027E0002D4CA04202D101241FE047E02B4CA04217
:1027F00001D1022419E02A4CA04201D1032414E0A3
:10280000284CA04201D104240FE0274CA04201D162
:1028100005240AE0254CA04201D1062405E0244C01
:10282000A04201D1072400E0082404FA0EF42C434E
:10283000C6F80848D9F800409C434D68ED0200D521
:102840001C43C9F80040DAF800409C434D68AD02D3
:1028500000D51C43CAF80040DBF800409C434D689B
:10286000AD0300D51C43CBF80040074D083D2C6854
:102870009C434E68F60300D51C432C60521C102A62
:10288000FFF43EAFBDE8F88F083C014044380240F9
:1028900000300140000002400004024000080240F5
:1028A000000C0240001002400014024000180240D8
:1028B000001C02400069084201D00120704700203E
:1028C0007047426921EA02030A4043EA02418161FA
:1028D0007047002A01D08161704709048161704707
:1028E00001488068704700001C00002070B5044655
:1028F000002C11D021684CF6CC400860216845F2CC
:1029000055500860D4E9001048602168A0688860CC
:10291000FFF7E6FF05460CE0012070BDFFF7E0FF82
:10292000401B312805D92068C068800701D00320EA
:1029300070BD2068C0688007F0D121684AF6AA20DF
:102940000860002070BD00684AF6AA2101600020DE
:102950007047000002488168027811448160704726
:102960001C00002010B50B48016841F400710160A3
:10297000016841F480610160016841F48071016087
:10298000032000F09FF80F2000F006F800F050F848
:10299000002010BD003C024030B587B00546002441
:1029A0001E48016841F020010160006800F020002D
:1029B000009001A902A800F03DF90598A8B100F027
:1029C0005DF940001649B0FBF1F1491E1648154A61
:1029D000026040F2E732C260416004618460846159
:1029E00000F0C4FE04461CB115E000F047F9E9E729
:1029F0000D4800F0FDFE04466CB9372000F034F8B5
:102A0000102D07D200222946372000F03BF8074856
:102A1000056000E0012407B0204630BD4038024088
:102A200040420F000014004018CE0120200000207A
:102A300082B00C48016841F480410160006800F4F4
:102A4000804001900748001F016841F080510160FB
:102A5000006800F08050019000220F21901E02B00B
:102A600000F010B844380240002809DB00F01F02D3
:102A7000012191404009800000F1E020C0F80011E0
:102A800070470000F0B40D460D4B1B68C3F30223E2
:102A9000C3F10704042C00D90424191D072901D20D
:102AA000002300E0DB1E012606FA04F1491E29403E
:102AB00099409E40761E16403143F0BC02F0FEBAAB
:102AC0000CED00E000F00701054A10684FF6FF0327
:102AD000184040EA01200349084310607047000095
:102AE0000CED00E00000FA052DE9F04704460D4624
:102AF000002C13D0DFF82891D9F80000EFB200F0D5
:102B00000700A8420CD289F80070D9F8000000F044
:102B10000700A84204D00120BDE8F0870120FBE7B0
:102B20002068404E810712D5400703D5306840F435
:102B3000E05030602078000703D5306840F46040F2
:102B400030603068A16820F0F000084330602078E1
:102B5000C00731D0334960680839012808D00228FD
:102B60000BD0032809D0096889070BD40120D3E7CB
:102B70000968890306D40120CEE70968890101D4D8
:102B80000120C9E7316821F0030101433160FFF7FB
:102B9000A7FE804641F2883A07E0FFF7A1FEA0EBCE
:102BA0000800504501D90320B6E73068616800F09D
:102BB0000C00B0EB810FF0D1D9F8000000F0070055
:102BC000A84209D989F80070D9F8000000F0070080
:102BD000A84201D001209FE72078400705D5306842
:102BE000E16820F4E050084330602078000706D503
:102BF0003068216920F4604040EAC100306000F094
:102C00005DF83168084AC1F30311515CC8400749B7
:102C1000086007480068FFF7BFFE00207CE700005F
:102C2000003C024008380240CCBB020800C0012032
:102C3000200000200F2202600B4A136803F00303F8
:102C40004360136803F0F0038360136803F4E053F8
:102C5000C360126802F46042D2080261034800684F
:102C600000F007000860704708380240003C02404E
:102C7000014800687047000000C0012000B5FFF760
:102C8000F7FF04490968044AC1F38221515CC84036
:102C900000BD000008380240DCBB020800B5FFF7A9
:102CA000E7FF04490968044AC1F34231515CC84056
:102CB00000BD000008380240DCBB020810B5174810
:102CC000006810F00C01164816D0164B042912D0DB
:102CD000082911D1114C241F216801F03F022168FD
:102CE00049020AD52068C0F38810A0FB0301002325
:102CF000FDF7C6FA09E0184610BD21680023C1F3AC
:102D00008811A1FB0001FDF7BBFA2168C1F3014165
:102D1000491C4900B0FBF1F010BD0000083802402A
:102D20000024F40040787D012DE9F84F0446002C82
:102D300013D02078DFF8A083C007A8F1040556D08F
:102D400008F104000168C1F3810101290CD0006879
:102D5000C0F38100022803D00DE00120BDE8F88F08
:102D6000D8F80000400206D5286880033FD5606887
:102D700070BB0120F2E76068B0F5803F10D0B0F57D
:102D8000A02F12D0286820F480302860286820F412
:102D9000802028606068E0B1FFF7A2FD064614E0DD
:102DA000286840F480302860F4E7286840F48020E8
:102DB0002860286840F480302860EBE7FFF790FD3A
:102DC000801B642801D90320C8E728688003F5D553
:102DD0000DE0FFF785FD064606E0FFF781FD801B4D
:102DE000642801D90320B9E728688003F5D4207846
:102DF000BA4F80074FF0000948D5B748001D016859
:102E000011F00C0F08D00068C0F38100022813D124
:102E1000D8F8000040020FD42868800704D5E06885
:102E2000012801D0012099E72868216920F0F800E5
:102E300040EAC100286029E0E068B8B101203860AC
:102E4000FFF74EFD064606E0FFF74AFD801B02280D
:102E500001D9032082E728688007F5D52868216911
:102E600020F0F80040EAC10028600FE0C7F80090A9
:102E7000FFF736FD064606E0FFF732FD801B02280D
:102E800001D903206AE728688007F5D42078000775
:102E900029D5DFF844A2924861690AF1700A89B124
:102EA00001210160FFF71CFD064606E0FFF718FD53
:102EB000801B022801D9032050E7DAF800008007C0
:102EC000F4D510E0C0F80090FFF70AFD064606E0D2
:102ED000FFF706FD801B022801D903203EE7DAF840
:102EE00000008007F4D42078400778D54FF0000A1E
:102EF00079483C300068C0000BD477483C3001680A
:102F000041F080510160006800F0805000904FF067
:102F1000010ADFF8D0B1DBF80000C00514D4DBF8FB
:102F2000000040F48070CBF80000FFF7D9FC0646A3
:102F300006E0FFF7D5FC801B022801D903200DE72E
:102F4000DBF80000C005F4D5634EA0686C3601289C
:102F50000FD0052812D0306820F0010030603068B2
:102F600020F004003060A068F8B1FFF7B9FC834698
:102F700017E0306840F001003060F4E7306840F05E
:102F800004003060306840F001003060EBE7FFF78C
:102F9000A7FCA0EB0B0141F28830814201D903204C
:102FA000DCE630688007F2D510E0FFF799FC834635
:102FB00009E0FFF795FCA0EB0B0141F2883081425C
:102FC00001D90320CAE630688007F2D4BAF1010FB4
:102FD00005D141483C30016821F080510160A06971
:102FE000C0B33D49091D09684FF0FF36C1F38101A7
:102FF000022946D0022805D0C7F86090FFF770FC80
:1030000004463AE0C7F86090FFF76AFC814607E0A3
:10301000FFF766FCA0EB0900022801D903209DE61A
:1030200028688001F4D4D4E907010843616AA26AE0
:10303000890106EB520241EA0241084394F82C1040
:1030400040EA0160C8F8000001203866FFF748FC3C
:10305000044607E03DE0FFF743FC001B022801D9CE
:1030600003207BE628688001F5D532E0FFF738FCC5
:10307000001B022801D9032070E628688001F5D4DE
:1030800027E0012823D0D8F80000E26900F480018D
:1030900091421AD1226A00F03F01914215D147F6C0
:1030A000C071626A0140B1EB821F0ED1A26A00F4C6
:1030B000403106EB5202B1EB024F06D194F82C10CE
:1030C00000F07060B0EB016F03D0012046E60120F4
:1030D00044E6002042E60000043802400000474277
:1030E000800E47420070004070B50446002C09D0A5
:1030F000606A002540B125616561A56294F85100C0
:1031000040B10CE0012070BD6068B0F5827FF4D062
:10311000E561F2E784F85050204600F045F80220BF
:1031200084F851002068016821F040010160A08806
:10313000218900F4827001F404410843A18901F45B
:1031400000610843217C01F002010843217D01F068
:1031500001010843218B01F400710843217F01F034
:103160003801084394F8201001F080010843218DB4
:1031700001F40051084321680860A069042101EAB4
:10318000104094F8241001F01001084321684860B1
:103190002068C16921F40061C1616565012084F87E
:1031A0005100002070BD000010B586B00446142107
:1031B00001A8FDF7D0F813492068884220D10021EA
:1031C0001148026842F480520260006800F48050A6
:1031D00000900D481438026842F002020260006854
:1031E00000F002000090382001900220029003912C
:1031F000032004900520059001A90448FFF772FA06
:1032000006B010BD003001404438024000040240C6
:103210002DE9F84F04468A4691461D46002660680F
:103220004FF0040BB0F5827F01D1A06888B194F80B
:103230005000012818D0012084F85000FFF750FBFF
:10324000074694F851004FF0000801280ED00226DE
:1032500082E084F851B04B465246514620460095D4
:1032600000F048F9BDE8F88F0220FBE7BAF1000F43
:103270001BD0B9F1000F18D084F851B0C4F85480B5
:10328000C4F838A0A4F83C90A4F83E90C4F830806C
:10329000A4F83480A4F83680C4F84080C4F8448090
:1032A000A068B0F5004F02D00BE0012654E0206882
:1032B000016821F0400101602068016821F480412B
:1032C000016020680168490603D4016841F04001AB
:1032D0000160E068B0B131E020688168C90709D0B9
:1032E000007BA16B0870A06B401CA063E08F401EA8
:1032F000E08707E0FFF7F4FAC01BA84201D3681C7F
:1033000004D11DB1E08F0028E6D11AE0032623E0A6
:1033100020688168C90709D0C068A16B0880A06BCC
:10332000801CA063E08F401EE08707E0FFF7D8FA1B
:10333000C01BA84201D3681C15D1A5B1E08F00289D
:10334000E6D13A462946204601F0B4F908B12020DA
:103350006065606D00B10126012084F8510084F899
:10336000508030467EE70326F6E72DE9F84F044605
:103370008B4692461D46002694F8500001280DD039
:103380004FF0010984F85090FFF7AAFA074694F825
:103390005100B046012804D00226A5E00220BDE875
:1033A000F88FBBF1000F1CD05FEA0A0019D0032090
:1033B00084F85100C4F85480C4F830B0A4F834A0A4
:1033C000A4F836A0C4F83880A4F83C80A4F83E8065
:1033D000C4F84480C4F84080A068B0F5004F02D023
:1033E0000BE0012680E02068016821F040010160C7
:1033F0002068016841F48041016020680168490645
:1034000003D4016841F040010160E068B0F5006F4D
:1034100005D0606878B3BAF1010F2DD04DE0606837
:1034200010B1BAF1010F20D1206B21680088C8606B
:10343000206B801C2063E08E401EE08615E0206833
:103440008168890709D5216B0988C160206B801CC0
:103450002063E08E401EE08607E0FFF741FAC01BC4
:10346000A84201D3681C04D11DB1E08E0028E6D12A
:1034700026E0032638E0FFE7206B21680078087318
:10348000206B401C2063E08E401EE08615E0206823
:103490008168890709D5216B09780173206B401C6D
:1034A0002063E08E401EE08607E0FFF719FAC01B9C
:1034B000A84201D3681C0ED16DB1E08E0028E6D180
:1034C0003A462946204601F03BF908B120206065C4
:1034D000A06810B105E0032606E02068C168806896
:1034E0000090606D00B1012684F8519084F85080FE
:1034F000304654E72DE9F84F04460A9E8A46934623
:103500001F4601254FF0000894F8500001280ED006
:10351000012084F85000FFF7E3F9814694F8510048
:10352000616801280DD0B1F5827F07D102E0022049
:10353000BDE8F88FA16809B9042802D04FF002084D
:10354000C3E0BAF1000F28D0BBF1000F25D038003E
:1035500023D094F85100042802D0052084F85100AB
:1035600000206065C4F838B0E787A787C4F830A0AA
:10357000E786A7862064606420680168490603D452
:10358000016841F040010160E068B0F5006F07D0CC
:103590006068E8B3012F48D07DE04FF0010894E067
:1035A000606808B1012F39D1206B21680088C8609C
:1035B000206B801C2063E08E401EE0862EE0206899
:1035C000816889070DD5E18E59B1012D09D1216B93
:1035D0000988C160206B801C2063E08E401EE0865D
:1035E000002520688168C9070BD0E18F49B1C06808
:1035F000A16B0880A06B801CA063E08F401EE08759
:103600000125FFF76DF9A0EB0900B04206D300E0F9
:103610000BE0701C02D04FF0030856E0E08E00284B
:10362000CDD1E08F0028CAD13BE0206B2168007823
:103630000873206B401C2063E08E401EE0862AE069
:103640002068816889070DD5E18E59B1012D09D116
:10365000216B09780173206B401C2063E08E401EB3
:10366000E086002520688168C9070BD0E18F49B149
:10367000C068A16B0870A06B401CA063E08F401E67
:10368000E0870125FFF72CF9A0EB0900B04201D338
:10369000701C11D186B1E08E0028D1D1E08F0028B6
:1036A000CED14A463146204601F04AF838B14FF0B3
:1036B00001082020606508E04FF0030805E0A068DD
:1036C00018B92068C168806800900120503460708B
:1036D0000020207040462BE77047704770B590F887
:1036E0003C20012A31D0012680F83C60022280F87B
:1036F0003D2002685468936824F070050C682C43E0
:103700005460134C0268A24214D0B2F1804F11D021
:10371000104CA2420ED0104CA2420BD00F4CA24231
:1037200008D00F4CA24205D00E4CA24202D00E4C43
:10373000A24204D123F080034968194391603C30D0
:10374000467000210170002070BD022070BD000095
:10375000000001400004004000080040000C004050
:1037600000040140004001400018004010B504462C
:10377000002C03D094F83D0010B107E0012010BDEB
:10378000002084F83C00204600F016F8022084F85F
:103790003D00211D206801F00FF901203D346072C9
:1037A0006070A070E07020716071A071E071207293
:1037B0002070002010BD000008B50068B0F1804FF7
:1037C00012D10A48016841F001010160006800F06F
:1037D00001000090002205211C20FFF753F9BDE8ED
:1037E00008401C20FFF740B908BD000040380240E7
:1037F00090F83D10012901D001207047022180F886
:103800003D100168CA6842F00102CA6000681449AC
:10381000884214D0B0F1804F11D0124988420ED0A6
:10382000114988420BD01149884208D0104988427A
:1038300005D01049884202D00F49884209D18168D9
:1038400001F00701062908D0016841F0010101607B
:1038500003E0016841F001010160002070470000B1
:10386000000001400004004000080040000C00403F
:1038700000040140004001400018004070B50446BB
:10388000002594F83C00012817D0012684F83C60FC
:10389000022084F83D002068826822F0770222F43A
:1038A0007F4282600868502838D00DDC202853D031
:1038B00005DC90B3102811D14EE0022070BD3028F5
:1038C0004AD040280AD13DE0602831D070280CD081
:1038D000B0F5805F03D0B0F5005F12D001253C3415
:1038E000667000202070284670BDCB68D1E90121A8
:1038F000206801F0C7F82068816841F07701816095
:10390000EDE7CB68D1E90121206801F0BBF8206820
:10391000816841F480418160E1E71DE0CA6849683F
:10392000206801F0C1F85021206801F0B5F8D6E711
:10393000CA684968206801F0C8F86021206801F071
:10394000ABF8CCE7CA684968206801F0ADF84021BF
:10395000206801F0A1F8C2E722680146104601F094
:103960009BF8BCE7704770B50446206801694FF0CA
:103970000005C943890716D4C168C943890712D411
:10398000E91E01610120207720688069800703D04B
:103990002046FFF7E7FF05E0204600F09BF82046B1
:1039A00000F099F8257720680169C943490718D4C0
:1039B000C168C943490714D46FF0040101610220B2
:1039C00020772068806910F4407F03D02046FFF7FD
:1039D000C9FF05E0204600F07DF8204600F07BF8A6
:1039E000257720680169C943090717D4C168C9430D
:1039F000090713D46FF008010161042020772068C3
:103A0000C069800703D02046FFF7ACFF05E02046E1
:103A100000F060F8204600F05EF825772068016924
:103A2000C943C90618D4C168C943C90614D46FF084
:103A300010010161082020772068C06910F4407FE0
:103A400003D02046FFF78EFF05E0204600F042F845
:103A5000204600F040F8257720680169C943C9076E
:103A600008D1C168C943C90704D1891E0161204634
:103A700000F032F820680169C943090609D4C16819
:103A8000C943090605D46FF0800101612046FFF7A4
:103A900023FE20680169C943490609D4C168C943A6
:103AA000490605D46FF040010161204600F028F876
:103AB00020680169C94389060BD4C168C9438906D6
:103AC00007D46FF0200101612046BDE87040FFF788
:103AD00004BE70BD7047704710B504462068B0F151
:103AE000804F01D105F0EAF904492068884203D1EA
:103AF000BDE81040FEF72EBF10BD000000140040CE
:103B00007047704770470000F8B504462268106897
:103B1000D168536900F00F06002E08D1850606D53E
:103B20008D0604D52046BDE8F84001F0C3B8002555
:103B3000002E66D003F0010601F49077374360D081
:103B4000C20705D0CA0503D5226C42F001022264E7
:103B5000420705D5DA0703D0226C42F00202226444
:103B6000820705D5DA0703D0226C42F004022264F2
:103B7000020707D501F02002324303D0226C42F045
:103B800008022264226C002A31D0800604D58806FF
:103B900002D5204601F08EF820684069C0F38010FD
:103BA000216C090700D438B3204601F041F82068A1
:103BB000406940061CD52068143050E8001F21F0F1
:103BC000400140E80012002AF5D1A06B60B15749CE
:103BD0000165A06BFDF762FF002808D0A06B016DA6
:103BE00001B0BDE8F04008472046FFF78BFFF8BD65
:103BF0002046FFF787FFF8BD2046FFF783FF2564C7
:103C0000F8BD236B012B7ED1C3067CD5CB067AD5BC
:103C100010685068009050694FF02003400643D56B
:103C2000A16B0868406880B20028E9D0A28D82426A
:103C3000E6D9E085C869B0F5807F2DD020680C30CA
:103C400050E8001F21F4807140E80012002AF5D1ED
:103C50002068143050E8001F21F0010140E80012F4
:103C6000002AF5D12068143050E8001F21F04001EF
:103C700040E80012002AF5D184F83E302563206820
:103C80000C3050E8001F21F0100140E80012002A1B
:103C9000F5D1A06BFDF7BBFEA08DE18D401A81B27E
:103CA0002046FFF72EFFF8BDA08DE18D401A81B2AE
:103CB000E08D0028F7D00029F5D020680C3050E8BE
:103CC000002F22F4907240E80026002EF5D12068E3
:103CD000143050E8002F22F0010240E80026002EA8
:103CE000F5D184F83E30256320680C3050E8002F71
:103CF00022F0100240E80023002BF5D12046FFF708
:103D000000FFF8BDFFE7020606D50A0604D52046E7
:103D1000BDE8F84001F026B94006F2D54806F0D5D6
:103D20002046BDE8F84000F0AABF0000EF4A0108B5
:103D300070B50446002C04D094F83D00002510B165
:103D400006E0012070BD84F83C50204600F022F8C7
:103D5000242084F83D002068C16821F40051C1602E
:103D6000204601F00BF82068016921F490410161BF
:103D70002068416921F02A0141612068C16841F44D
:103D80000051C1602564202084F83D0084F83E0085
:103D9000002070BD2DE9F04186B00646142101A82F
:103DA000FCF7D9FA364ADFF8D48030680025344968
:103DB000103A02230324334F4FF0070C40453DD106
:103DC000086840F400300860086800F40030009093
:103DD000106840F008001060106800F008000090C3
:103DE00060200190029303950494CDF814C001A9BA
:103DF0003846FEF777FC254C234820604FF00060E2
:103E000060604020A060E560000120616561A561FF
:103E1000E561256265622046FDF73AFF08B1FDF7CE
:103E20002DFB7463A663002205212620FEF72AFEDF
:103E30002620FEF719FE06B0BDE8F081144EB04210
:103E4000F9D1086840F480200860086800F48020F8
:103E50000090106840F008001060106800F0080042
:103E600000904FF440700190029303950494CDF8B4
:103E700014C001A93846FEF735FCDCE700440040D9
:103E800040380240000C0240A0600240B8CD012042
:103E90000048004090F83E30202B01D002207047AF
:103EA00059B152B190F83C30012B08D0012380F871
:103EB0003C300023036300F0EBBF01207047022079
:103EC000704790F83E30202B01D00220704759B146
:103ED00052B190F83C30012B08D0012380F83C30DF
:103EE0000023036301F020B80120704702207047CF
:103EF000704770472DE9F84304460E4615461F46A5
:103F000094F83D00202802D00220BDE8F883C6B115
:103F1000BDB194F83C00012815D0012084F83C0084
:103F20004FF00009C4F84090212084F83D00FEF7CE
:103F3000D7FC8046A584E584A068B0F5805F04D0F6
:103F400005E00120E1E70220DFE7206920B13546E6
:103F5000002684F83C9013E00025FAE7434600224F
:103F600080212046009701F02CF808B10320CCE70F
:103F70009DB1216815F8010B4860E08C401EE0847B
:103F8000E08C0028EAD143460022402120460097D9
:103F900001F017F840B10320B7E736F8020B2168AB
:103FA000C0F308004860E8E7202084F83D000020C6
:103FB000ABE70000F7B5044694F83D00202801D097
:103FC0000220FEBD019999B392B394F83C000128F8
:103FD00031D0012084F83C002162A284E2840025D3
:103FE0002564212084F83D00636B1448D863636B1B
:103FF00013481864636B1348D864606B05652668C2
:104000001346361D3246606BFDF7ACFE21686FF03B
:104010004000086084F83C502068143050E8001FCD
:1040200041F0800140E80012002AF5D10020FEBDD9
:10403000FFE70120FBE70220F9E70000E54B01085C
:10404000274C0108FF4A010801460020064A00EB00
:10405000001313441B688B4201D105F0CDBA401CFC
:10406000C0B20728F3D370471A0100207047FEE75B
:104070007FB50024009401940294039413481249DC
:1040800001604FF480314160846004610125057650
:1040900080F82040C4620E498162C460C56180F826
:1040A00030504561FDF79BFA08B1FDF7E7F90620AE
:1040B00000900195029469460448FDF7E1F9002853
:1040C00001D0FDF7DBF97FBD00210140A0040020F5
:1040D0000100000F7FB50024009401940294039422
:1040E0001348124901604FF48031416084600461DB
:1040F0000125057680F82040C4620E498162C460C3
:10410000C56180F830504561FDF769FA08B1FDF7E7
:10411000B5F9032000900195029469460448FDF723
:10412000AFF9002801D0FDF7A9F97FBD00220140B9
:10413000E80400200100000F1CB500240094019445
:104140000F490E4808600846FDF7DDFB08B1FDF792
:1041500095F900940194002269460948FDF7B0FBE7
:1041600008B1FDF78BF9102269460548FDF7A8FB59
:10417000002801D0FDF782F91CBD0000007400404A
:10418000F005002008B51548016841F48001016080
:10419000016801F480010091016841F4001101609F
:1041A000006800F400100090002205211120FEF7A5
:1041B00069FC1120FEF758FC002205213820FEF78B
:1041C00061FC3820FEF750FC002205213A20FEF762
:1041D00059FCBDE808403A20FEF746BC30380240A2
:1041E00010B5B2B00DF08AF905F0F2FA02F06CF9F0
:1041F00002F006FE05F028FA002101200DF03AF940
:1042000006F03CFB05F02AFB05F00AFA05F0F4FA8B
:104210001C2227492BA8FCF777F800212BA80AF0CD
:10422000E1FA244C20601C2221491C3124A8FCF70F
:104230006BF8002124A80AF0D5FA60601C221C4902
:1042400038311DA8FCF760F800211DA80AF0CAFA51
:10425000A0601C221649543116A8FCF755F800211D
:1042600016A80AF0BFFAE0601C22114970310FA8AD
:10427000FCF74AF800210FA80AF0B4FA20611C22CA
:104280000B498C3108A8FCF73FF8002108A80AF078
:10429000A9FA60611C220649A83101A8FCF734F88C
:1042A000002101A80AF09EFAA06132B010BD000002
:1042B00000BB0208000000202DE9F04F87B0142158
:1042C00002A8FCF748F800244C48016841F00401BA
:1042D0000160016801F004010191016841F0800171
:1042E0000160016801F080010191016841F0010164
:1042F0000160016801F001010191016841F01001C4
:104300000160016801F010010191016841F00201B2
:104310000160016801F002010191016841F00801AA
:104320000160006800F008000190DFF8D4900022DE
:104330004FF490614846FEF7CCFADFF8C8A04FF47E
:104340000048002241465046FEF7C3FADFF8B8B0F5
:1043500001228C215846FEF7BCFA01224021484632
:10436000FEF7B7FA4FF47C4702970394049402A92E
:104370002648FEF7B7F94FF498600290012503959F
:1043800004940226059602A94846FEF7ABF94FF4BD
:10439000404002900394049402A94846FEF7A2F913
:1043A00002970394049402A95846FEF79BF938112A
:1043B00002900394049402A91548FEF793F94FF470
:1043C000C85002900394049402A95046FEF78AF95B
:1043D000CDF8088003950494059602A95046FEF78F
:1043E00081F98C20029003950494059602A9584601
:1043F000FEF778F907B0BDE8F08F000030380240D2
:104400000004024000000240000C02400010024084
:104410000008024010B509480749016003214160C6
:104420004FF496618160FEF761FA002803D0BDE881
:104430001040FDF723B810BD0030004024CD01200E
:10444000F0B58BB04C4EC0213170A82272700A2397
:10445000B3706D20F070FF20341D20706070A0706C
:104460000027E770251D29706A70AB700120E87085
:104470000021084615F060F87278F0783178B3784A
:104480004FEA024C40EA01604CEA0326304306063C
:10449000090641EA024141EA032292B246EA0222B7
:1044A00001F47F0142EA112141EA1060A4F11001F8
:1044B00008606278E0782178A378160440EA016009
:1044C00046EA032420430406090641EA024141EA80
:1044D000032292B244EA022201F47F0142EA11214E
:1044E00041EA1060A5F1100108606A78E87829783F
:1044F000AB78140440EA016044EA03242043040634
:10450000090641EA024141EA032292B244EA022248
:1045100001F47F0142EA112141EA1060A5F10C018A
:10452000086017491548CDE90071A5F10C031A1F61
:104530000290111F134809F009FC124809F034FEDB
:10454000104890F83100400703D50E4809F04EFF9F
:1045500002E00C4809F02EFE0B490A4809F08AFED9
:104560001C220A4904A8FBF7CFFE064904A80AF05A
:1045700039F90BB0F0BD0000300400200D9702089F
:10458000F581010830F401204980010830BD02089E
:1045900010B50F480D4901604FF482714160002150
:1045A0008160C160016141614FF400728261C1614B
:1045B0000162416281620A21C162FEF795FD002815
:1045C00003D0BDE81040FCF759BF10BD00300140DA
:1045D0000406002010B586B00024029403940494CD
:1045E00005940094019415484FF08041016042F217
:1045F000CF01416084600921C16004618021816133
:10460000FFF7B4F808B1FCF739FF4FF4805002907F
:1046100002A90A48FFF732F908B1FCF72FFF00940E
:10462000019469460548FFF759F808B1FCF726FFE1
:104630000248FFF7DDF806B010BD00005C06002060
:1046400010B50C480A4901604FF416414160002141
:104650008160C16001610C2242618161C161FFF72B
:1046600067FB002803D0BDE81040FCF707BF10BD72
:104670000044004030CD012010B50C480A490160CB
:104680004FF4E131416000218160C16001610C2281
:1046900042618161C161FFF74BFB002803D0BDE897
:1046A0001040FCF7EBBE10BD0048004074CD012067
:1046B000FEE7FEE7F8B504464FF4827560684FF4F4
:1046C0008063A8420AD1A068B0F5004F01D098429B
:1046D00004D12068066826F0400606606068A8429B
:1046E0001ED1A06898420DD00B4600920022802176
:1046F000204600F053F808B3606D40F0200060657C
:104700000320F8BD0B46009200220121204600F054
:1047100045F898B1606D40F0200060650320F8BD59
:104720000B46009200220121204600F037F828B104
:10473000606D40F0200060650320F8BD0020F8BDEA
:104740007CB504461348144D0068B0FBF5F04FF4F7
:104750007A75684301906068B0F5827F0DD10B4691
:10476000009200228021204600F018F878B1606D98
:1047700040F02000606503207CBD019838B10198AD
:10478000401E019020688068C0430006F5D50020D7
:104790007CBD000000C0012000366E012DE9F84309
:1047A00004460F4691461E46089DFEF799F8401BA9
:1047B000351AFEF795F8804626480068C0F3CB30DE
:1047C000684300903AE0701C38D0FEF789F8A0EBFF
:1047D0000800A84203D215B1009858B32BE0206816
:1047E000416821F0E00141606068B0F5827F0BD143
:1047F000A068B0F5004F02D0B0F5806F04D12068FA
:10480000016821F040010160A06AB0F5005F09D1A4
:104810002068016821F4005101602068016841F4BA
:10482000005101600120503460700020207003208E
:10483000BDE8F88300250098401E0090206880683D
:1048400037EA000004D000204845BCD10020EFE743
:104850000120F9E700C00120FFF7F2FD00263746EE
:10486000B046C14604F0C6FA04460D46A01B65EBEF
:1048700007014FF47A72801A71F1000005D32646C1
:104880002F46214607A000F0DFFB42464B4620465C
:1048900029460DF063F8804689460A2009F038FE63
:1048A000E0E700000D0A2D2D2D2D2D7469636B732B
:1048B0003A25642D2D2D2D2D0D0A000010B5502008
:1048C00080F31188BFF34F8FBFF36F8F16F0F6FEA2
:1048D00018B104494FF080500860002080F311881F
:1048E00010BD000004ED00E030B593B0302107A802
:1048F000FBF731FD142102A8FBF72DFD00251F4811
:10490000016841F080510160006800F08050019022
:104910001B48016841F480410160006800F4804058
:104920000190092007904FF48030089001200C90EE
:1049300002240D9480050E9019200F904FF4A8705A
:10494000109011940420129007A8FEF7EDF908B119
:10495000FCF794FD0F200290039404954FF4A050AF
:1049600005904FF480500690052102A8FEF7BCF890
:10497000002801D0FCF782FD13B030BD4038024062
:10498000007000400448016841F470010160024970
:10499000024880390860704788ED00E00000010897
:1049A0000148FEF7E0BF00005C0600200148FEF76A
:1049B000DABF000018CE01202DE9F0410268264D33
:1049C000264E274FDFF89CC0274B4FF08048A84267
:1049D00009D0404507D0B04205D0B84203D0604569
:1049E00001D0984203D122F070044A682243A842C1
:1049F0001BD0404519D0B04217D0B84215D0604501
:104A000013D0984211D0194CA0420ED0184CA0429D
:104A10000BD0184CA04208D0174CA04205D0174C20
:104A2000A04202D0164CA04203D122F44074CA68BE
:104A300022434C6922F08002224302608A68C262EB
:104A40000A688262A84201D0984201D109690163D3
:104A500001214161BDE8F0810000014000040040F7
:104A600000080040000C00400004014000400140EC
:104A7000004401400048014000180040001C004074
:104A80000020004010B5846824F47F4442EA0322E9
:104A90000A432243826010BD826822F070020A43FA
:104AA00042F007018160704710B5036A046A24F080
:104AB00001040462846924F0F00444EA021423F03F
:104AC0000A020A438461026210BD10B5036A23F032
:104AD000100303628469036A24F4704444EA0232D6
:104AE00023F0A00343EA01118261016210BD10B5F9
:104AF000806B0021C185C184FFF704F810BD70B53B
:104B0000846B20684069C0F3C01094F83D10002504
:104B1000212904D118B1E584204600F0BDF82068B1
:104B20004069C0F3801094F83E10222904D118B1D6
:104B3000E585204600F07CF8206C40F010002064F1
:104B40002046FEF7DFFF70BD10B50146886B09688F
:104B50000968C9052FD40021C18501680C3151E8CD
:104B6000002F22F4807241E80023002BF5D1016868
:104B7000143151E8002F22F0010241E80023002BFC
:104B8000F5D10168143151E8002F22F0400241E8CC
:104B90000023002BF5D1202180F83E10016B012964
:104BA00009D101680C3151E8002F22F0100241E8D0
:104BB0000023002BF5D1016B012902D0FFF798F9F2
:104BC00010BD818DFEF79DFF10BD10B5806B016B90
:104BD000012902D0FFF78DF910BD818D4908FEF73C
:104BE00090FF10BD10B50146886B09680968C905BA
:104BF00016D40021C1840168143151E8002F22F03D
:104C0000800241E80023002BF5D101680C3151E806
:104C1000002F42F0400241E80023002BF5D110BDE7
:104C2000FFF712FA10BD10B5806BFFF71FFA10BD29
:104C300001680C3151E8002F22F4907241E8002302
:104C4000002BF5D10168143151E8002F22F0010248
:104C500041E80023002BF5D1016B012909D101683E
:104C60000C3151E8002F22F0100241E80023002B04
:104C7000F5D1202180F83E1000210163704710B566
:104C80000168CA6822F04002CA60202180F83D1005
:104C9000FFF7DAF9002010BD01680C3151E8002F50
:104CA00022F0C00241E80023002BF5D1202180F83A
:104CB0003D10704708B590F83E10222901D002201F
:104CC00008BD82684FF480539A4201D1016921B135
:104CD000816A9A421DD052B10BE0816A0268526823
:104CE000C2F308020A80816A891C816209E00269B4
:104CF0007AB10268526802F07F020A70816A491C28
:104D00008162C18D491E0904090CC18505D00020AE
:104D100008BD026852680A70F0E70168CA6822F0AC
:104D20002002CA600168CA6822F48072CA60016801
:104D30004A6922F001024A61202180F83E10016B8D
:104D4000012903D0FFF7D4F8002008BD002101633A
:104D500001680C3151E8002F22F0100241E80023D5
:104D6000002BF5D101680A68D20602D50A684968A5
:104D70000091818DFEF7C5FEE6E700002DE9F041C8
:104D8000044620680169E26821F440511143016141
:104D9000A1682069E269014360691043014320680A
:104DA000C26849F20C639A430A43C26020684169B1
:104DB000A26921F44071114341613349206888425E
:104DC00002D03249884202D1FDF768FF01E0FDF7C9
:104DD00055FFE1690023192764253226B1F5004FFC
:104DE00028D061688B0F8A00A0FB0701FBF748FA07
:104DF0000146B0FBF5F07A42504301EB800006EB30
:104E00000010B0FBF5F000F0F002B1FBF5F002EBA2
:104E10000012B1FBF5F07B42584301EB800006EB3A
:104E20000010B0FBF5F0216800F00F00104488601E
:104E3000BDE8F08161684A18A0FB07015B41FBF700
:104E40001FFA0146B0FBF5F00201B1FBF5F06FF07F
:104E50001803584301EB800006EBC000B0FBF5F0EF
:104E600000F0F80002EB4002B1FBF5F0584301EB13
:104E7000800006EBC000B0FBF5F0216800F00700F1
:104E800010448860D4E70000001001400014014085
:104E900037B582B004461346039AA262A385002563
:104EA0002564222084F83E00A16B1C48C863A16BD6
:104EB0001B480864A16B1B48C864A06B056521688A
:104EC000A06B091DFCF74EFF206801684068019047
:104ED00084F83C50206948B120680C3050E8001F2D
:104EE00041F4807140E80012002AF5D120681430A6
:104EF00050E8001F41F0010140E80012002AF5D1FE
:104F00002068143050E8001F41F0400140E80012D2
:104F1000002AF5D105B0002030BD0000494B010842
:104F2000CB4B0108FF4A010881628285C2850021BE
:104F30000164222280F83E2080F83C10016900299B
:104F400004D00168CA6842F48072CA6001684A6984
:104F500042F001024A610068C16841F02001C1606D
:104F60000020704790F83D10212901D002207047A1
:104F70008168B1F5805F01D1016961B1016A4A1CA4
:104F80000262026809785160C18C491E0904090C4B
:104F9000C1840AD013E0016A02680988C1F30801DC
:104FA0005160016A891C0162EEE70168CA6822F05B
:104FB0008002CA600068C16841F04001C160002001
:104FC00070472DE9F04104460E4617469846069D67
:104FD00025E0681C23D02DB1FDF782FCA0EB080072
:104FE000A8421CD920680C3050E8001F21F4D07171
:104FF00040E80012002AF5D12068143050E8001F64
:1050000021F0010140E80012002AF5D120203C34B3
:105010006070A070002020700320BDE8F08120683F
:10502000006836EA000004D00020B842D1D0002049
:10503000F3E70120F9E700000148FEF765BD000035
:1050400030CD0120FEE700000FB4054B10B503A9D9
:10505000044A029800F014F910BC5DF814FB00003B
:10506000CD850108D0C001200FB4084B10B504A9AC
:1050700002AA039800F004F9044602A9002000F0F7
:10508000A1FC204610BC5DF814FB0000C5590108C6
:105090007CB5044600201D46164600290BD0491E4B
:1050A000CDE90041044B6A462946304600F0E8F855
:1050B000009A002111707CBDAF5901080907090E43
:1050C000002804DB00F1E02080F80014704700F0B5
:1050D0000F0000F1E02080F8141D704702E008C8BE
:1050E000121F08C1002AFAD170477047002001E062
:1050F00001C1121F002AFBD1704700002DE9FF5F9C
:1051000082B00021DDE90430020DDDF840B0034338
:1051100018D044F61050A2F2FF32424315141198F1
:1051200001281FD0A5EB0B00401C5FEA000A4FF0DE
:1051300000064E4FDFF83891B046504615D5CAF1FB
:10514000000413E0119801244AA3012801D16FEA59
:105150000B010298119AC0E90031C0E9024206B081
:10516000BDE8F09FCBF10000DFE704460021404A94
:10517000491842EB0450CDE9001012E0E00707D0D7
:1051800032463B4640464946FBF7E9F980468946A8
:1051900032463B4610461946FBF7E1F906460F46F4
:1051A0006410002CEAD1DDE90401DDE90023BAF145
:1051B000000F06DAFBF7D3F942464B46FBF7CFF96F
:1051C00005E0FBF75BFB42464B46FBF757FB04460B
:1051D0000E460022284BFBF7D9FB03D84FF0FF30D7
:1051E000014607E00022254B20463146FBF710F927
:1051F000FBF7B3FB102409E0002C0ADB0A22002392
:10520000FBF73EF8039B30321A55641E50EA010248
:10521000F2D1641C039AC4F111031444119A012AB7
:1052200003D0012208430DD10AE0084304D0002036
:105230004FF0110B119072E7A3EB0B056D1E0DE003
:105240005B4504DD4FF0000205F1010504E003DADF
:105250004FF00002A5F10105002AECD00298119947
:10526000C0E90231C0E9004579E7000000001440C0
:105270000000F03F300000000000F0430000E03F7D
:105280002DE9FF4F95B09B468946064600250FE263
:10529000252877D100242746F84A0121059400E00B
:1052A000044316F8013F203B01FA03F01042F7D106
:1052B00030782A2811D06FF02F033078A0F1300217
:1052C000092A16D8059A44F0020402EB820203EB85
:1052D00042021044761C0590EFE759F8042B059222
:1052E000002A03DA504244F40054059044F00204CA
:1052F000761C30782E2816D116F8010F44F00404DD
:105300002A280DD06FF02F023078A0F13003092B3E
:1053100009D807EB870302EB4303C718761CF3E7B2
:1053200059F8047B761C30786C280FD006DC4C28AA
:1053300017D068280DD06A2814D104E0742810D042
:105340007A280FD10DE044F400140AE044F48014EC
:1053500001E044F440147278824202D104F58014D2
:10536000761C761C307866280BD013DC582877D052
:1053700009DC002875D04528F6D04628F4D0472807
:105380001AD19DE118E0632835D0642879D06528CA
:1053900012D195E1702873D008DC6728F1D0692814
:1053A0006FD06E280DD06F2806D1B5E073282CD0B1
:1053B000752875D0782874D05A46179990476D1C77
:1053C00075E1C4F30250022809D003280DD0D9F8A2
:1053D000001004280DD00D6009F1040967E1D9F827
:1053E0000010EA17C1E90052F6E7D9F800100D8065
:1053F000F2E70D70F0E719F8041B8DF8001000209B
:105400008DF80100EA46012003E059F804AB4FF0A3
:10541000FF3061074FF0000102D40DE008F10101F7
:105420008846B9420FDA8045F8DB1AF808100029DF
:10543000F4D108E008F1010188468142FADB1AF84C
:1054400008100029F6D105985B46A0EB0807214615
:105450003846179A00F094FA284400EB080507E054
:105460004DE029E10DE01AF8010B5A4617999047D3
:10547000B8F10108F7D25B4621463846179A13E186
:1054800042E00A220092C4F302524FF0000A022ABC
:1054900008D059F804CB032A4FEAEC710AD00DE08A
:1054A00029E02AE009F1070121F00702F2E802C130
:1054B000914609E00FFA8CFC4FEAEC71042A03D103
:1054C0004FFA8CFC4FEAEC71002907DA0A460021FA
:1054D000DCF1000C61EB02012D2202E0220504D573
:1054E0002B228DF80420012203E0E20701D02022C4
:1054F000F7E7904659E00A2102E010220DE0102162
:105500004FF0000A00910BE010224FF0000A44F027
:1055100004040827009203E008224FF0000A0092DA
:10552000C4F30252022A05D059F804CB0021032A01
:1055300008D009E009F1070121F00702F2E802C1F1
:10554000914605E01FFA8CFC042A01D10CF0FF0CF7
:105550004FF00008220728D5702806D0009B83F062
:10556000100353EA0A0305D00EE040228DF8042010
:10557000012208E05CEA010206D030228DF8042006
:105580008DF8050002229046009B83F0080353EA41
:105590000A030AD15CEA010201D1620705D5302273
:1055A0008DF804204FF001087F1E582804D034A045
:1055B00003900EA802900DE036A0F9E7534660462E
:1055C000009AFAF75DFE84460398825C0298401EBA
:1055D000029002705CEA0100F0D1029806A9081A54
:1055E00000F1200A600702D524F4803400E001278E
:1055F000574502DDA7EB0A0000E0002000EB0A019E
:10560000009005984144401A0590E00306D45B469B
:105610002146179A059800F0B3F90544002706E0E3
:1056200001A85A46C05D179990476D1C7F1C4745DD
:10563000F6DBE0030CD55B462146179A059800F08F
:105640009FF9054404E030205A46179990476D1C95
:105650000099481E00900029F5DC08E002980299A4
:105660005A460078491C0291179990476D1CBAF16F
:105670000001AAF1010AF1DC65E10000092801003E
:1056800030313233343536373839616263646566B8
:10569000000000003031323334353637383941427A
:1056A000434445460000000000F058F90544761CCC
:1056B000307800287FF4ECAD19B02846BDE8F08FB3
:1056C000620700D4062709F1070222F0070CFCE864
:1056D0000223E14603F000485FEA080C02D00FF213
:1056E000702C0DE05FEA045C02D50FF2682C07E035
:1056F0005FEAC47C02D00FF2602C01E0AFF2700CC4
:105700004FF0FF3823F00043CDF850C065280CD08F
:1057100006DC452809D046281DD047283DD13DE06C
:10572000662818D067287ED138E00021112F01DBD0
:10573000112000E0781CCDE9000106A90EA8FFF7B2
:10574000DDFCDDE90F010E9A03910021009207F1C3
:10575000010A04914DE04FF000400097CDE901109F
:1057600006A90EA8FFF7CAFCDDE90F0203920E9B03
:1057700011990022DDF80CA00093049211B9791C54
:1057800000EB010AB7EB0A0004D4C0F1FF3007F1C7
:10579000010A0490AAEB0700019044E0012F00DA0F
:1057A00001270021112F01DD112000E03846CDE94D
:1057B000000106A90EA8FFF7A1FCDDE90F010E9A72
:1057C0000391002104910092BA4621070CD4039959
:1057D000514500DA8A46BAF1010F05DD009AAAF1B7
:1057E0000101515C302908D0B84202DA10F1040FEF
:1057F00006DA0121CDE9011015E0AAF10101E9E77E
:10580000002805DC049901440491AAEB000102E0A0
:10581000411C514500DD8A460499401A401C019004
:105820004FF000400290200704D40198504501DB5E
:10583000CDF8048000208DF84F0002980DF14F073D
:10584000B0F1004F25D02B200E9002984FF00208A7
:1058500000280CDA404202902D200E9007E00A2129
:105860000298FAF730FF3031029007F8011DB8F1C5
:105870000001A8F10108F2DC02980028EFD1791E9E
:105880000E980870307800F0200040F0450007F8CE
:10589000020D12A8C01B00F107081498007800B18F
:1058A000012000EB0A01019801EBE07105984144E9
:1058B000401A401E0590E00306D45B462146179A25
:1058C000059800F05DF805441498007818B15A4620
:1058D000179990476D1CE00324D55B462146179A23
:1058E000059800F04DF805441CE00498002807DBFB
:1058F000DDE90301884203DD0098405C179901E06F
:10590000179930205A469047049805F10105401C2C
:1059100004900198401E019004D12E205A461799F8
:1059200090476D1CBAF10001AAF1010ADDDC05E027
:1059300017F8010B5A46179990476D1CB8F10001F2
:10594000A8F10108F4DC5B462146179A0598ABE6FE
:105950002D0000002B000000200000002DE9F04188
:10596000044600251E461746880404D405E039463F
:105970002020B0476D1C641EF9D52846BDE8F08193
:105980002DE9F041044600251E469046C80301D586
:10599000302700E02027880404D505E0414638463A
:1059A000B0476D1C641EF9D52846BDE8F0814A68F1
:1059B000002A06D00A68531C0B6010704868401E0D
:1059C000486070470A68531C0B60107070470000F5
:1059D0002DE9FE4F82460F4616461C460AF1200866
:1059E0004FF00109DAF81010B819884205D93FA024
:1059F0000CF03AFB0520BDE8FE8FD8F8081009B17D
:105A000040468847F8070DD02046394601230090CC
:105A1000641C7F1C1A46504608F050FF05462800BB
:105A200057D1761E012150460CF064F90546280036
:105A30004FD1AD208DF804000DF1040B36E0B9F123
:105A4000000F15D00BF101023946504605F001F95F
:105A50009AF8350008B1052200E0042220780BF8FE
:105A600002000BEB0201607848704FF0000906E07D
:105A7000012220788DF8050060788DF8060000205E
:105A800000900346D8F80450921C01A94046A8474C
:105A900005461DB11FA00CF0E7FA1AE0504615F0BC
:105AA00035F80546ADB9B61EBF1CA41C022EC6D2E1
:105AB000002150460CF01EF90546280009D1012EA0
:105AC00007D101231A4639465046009408F0F6FEE5
:105AD00005461DB1002150460CF00CF9D8F80C1009
